:020000021000EC
:1060000000400020097E0100517E0100537E010006
:106010000000000000000000000000000000000080
:10602000000000000000000000000000557E01009C
:106030000000000000000000577E0100597E0100B2
:106040005B7E01005B7E01005B7E01005B7E0100E8
:106050005B7E0100000000005B7E01005B7E0100B2
:106060005B7E01005B7E01005B7E01005B7E0100C8
:106070005B7E01005B7E01005B7E01005B7E0100B8
:106080005B7E01005B7E01005B7E01005B7E0100A8
:106090005B7E01005B7E0100517C01005B7E0100A4
:1060A0005B7E01005B7E010000000000000000003C
:1060B00000000000000000000000000000000000E0
:1060C00010B5064C2378002B07D10548002802D0D4
:1060D000044800E000BF0121217010BD5C240020B5
:1060E00000000000DC86010008B5084B002B03D03F
:1060F0000748084900E000BF07480168002903D0AD
:10610000064A002A00D0904708BDC04600000000A3
:10611000DC860100602400205824002000000000DC
:10612000164B002B00D1144B9D46402292029A1A26
:10613000924600218B460F461348144A121A02F069
:106140001FF80F4B002B00D098470E4B002B00D0B0
:1061500098470020002104460D4600200C490022EB
:10616000002301F07BFE01F021FF2046294600F0CC
:1061700007FB01F0DBFEC0460000080000400020E5
:1061800000000000000000005C2400207C250020AE
:106190004D7F010070DF7047181CC04671DF7047EB
:1061A000181CC04672DF7047181CC04673DF70476A
:1061B000181CC04674DF7047181CC04675DF704756
:1061C000181CC04676DF7047181CC04677DF704742
:1061D000181CC04678DF7047181CC04679DF70472E
:1061E000181CC0467ADF7047181CC0467BDF70471A
:1061F000181CC0467CDF7047181CC0467DDF704706
:10620000181CC0467EDF7047181CC0467FDF7047F1
:10621000181CC04680DF7047181CC04681DF7047DD
:10622000181CC04682DF7047181CC04683DF7047C9
:10623000181CC04684DF7047181CC046B0DF70478A
:10624000181CC046B1DF7047181CC046B2DF70474B
:10625000181CC04690DF7047181CC04691DF70477D
:10626000181CC04692DF7047181CC04693DF704769
:10627000181CC04694DF7047181CC04695DF704755
:10628000181CC04696DF7047181CC04697DF704741
:10629000181CC04698DF7047181CC046A0DF704726
:1062A000181CC046A1DF7047181CC046A2DF70470B
:1062B000181CC046A3DF7047181CC046A4DF7047F7
:1062C000181CC046A5DF7047181CC046A6DF7047E3
:1062D000181CC046A7DF7047181CC046A8DF7047CF
:1062E000181CC046A9DF7047181CC046AADF7047BB
:1062F000181CC04660DF7047181CC04661DF70473D
:10630000181CC04662DF7047181CC04663DF704728
:10631000181CC04664DF7047181CC04665DF704714
:10632000181CC04666DF7047181CC04667DF704700
:10633000181CC04668DF7047181CC04669DF7047EC
:10634000181CC04680B500AFBFF34F8F024B034A05
:10635000DA60BFF34F8FFEE700ED00E00400FA05BE
:1063600080B582B000AF7860A023DB057A68C132C7
:10637000FF3292000321D150BD4602B080BDC0461D
:1063800080B582B000AF7860A023DA057B68012178
:106390009940A123DB00D150BD4602B080BDC0466C
:1063A00023DF7047181CC04624DF7047181CC04606
:1063B00025DF7047181CC04626DF7047181CC046F2
:1063C00027DF7047181CC04628DF7047181CC046DE
:1063D00029DF7047181CC0462ADF7047181CC046CA
:1063E0002BDF7047181CC0462CDF7047181CC046B6
:1063F0002DDF7047181CC0462EDF7047181CC046A2
:106400002FDF7047181CC04630DF7047181CC0468D
:1064100031DF7047181CC04632DF7047181CC04679
:1064200035DF7047181CC04636DF7047181CC04661
:1064300033DF7047181CC04634DF7047181CC04655
:1064400037DF7047181CC04638DF7047181CC0463D
:1064500039DF7047181CC0463ADF7047181CC04629
:106460003BDF7047181CC0463CDF7047181CC04615
:106470003DDF7047181CC0463EDF7047181CC04601
:106480003FDF7047181CC04641DF7047181CC046EC
:1064900042DF7047181CC04643DF7047181CC046D7
:1064A00040DF7047181CC04644DF7047181CC046C8
:1064B00045DF7047181CC04646DF7047181CC046B1
:1064C00047DF7047181CC04648DF7047181CC0469D
:1064D00049DF7047181CC0464ADF7047181CC04689
:1064E0004BDF7047181CC0464CDF7047181CC04675
:1064F0004DDF7047181CC04651DF7047181CC0465E
:1065000052DF7047181CC04621DF7047181CC04678
:1065100020DF7047181CC04622DF7047181CC04699
:106520004EDF7047181CC0464FDF7047181CC0462E
:1065300050DF7047181CC04610DF7047181CC0465B
:1065400011DF7047181CC04612DF7047181CC04688
:1065500013DF7047181CC04680B584B000AFF860E8
:10656000B9607A60FFF7EEFEBD4604B080BDC0465C
:1065700080B582B000AF021C3960BB1D1A80BB1D04
:106580001A8805493B68081C111C1A1CFFF7E4FF18
:10659000BD4602B080BDC046EFBEADDE80B500AFE7
:1065A0001320FFF7DDFEBD4680BDC04680B594B028
:1065B00000AF3B1C0F3304221A703B1C75221A805B
:1065C0003B1C244A9A603B1C17229A803B1C1033C8
:1065D000181C0021382201F0D3FD3B1C103300228F
:1065E0001A703B1C103301229A803B1C10333A1C5A
:1065F0000F329A603B1C10333A1CDA623B1C10339A
:10660000181C002100F0DAFF031CFB64FB6CBB6468
:10661000BB6C002B06D0BA6C0F4B101CAB211A1CA4
:10662000FFF79AFF0D4B181C0021142201F0A8FD62
:106630000A4B03221A70094B00225A60074B0022B2
:106640001A72064BA0221A82044B00225A82BD46BF
:1066500014B080BD04200020708601007824002042
:1066600080B582B000AF0C4B181CFFF79FFD031CD8
:106670007B607B683B603B68002B06D03A68074B29
:10668000101CBF211A1CFFF767FF1320FFF778FECD
:10669000BD4602B080BDC04678240020708601004F
:1066A00080B586B000AF1A4B0820191C5022002379
:1066B00001F04CFA031C7B617B693B613B69002B59
:1066C00006D03A69134B101CCE211A1CFFF744FF69
:1066D0003B1D181C0021012201F052FD3B1D1A78C0
:1066E00001218A431A703B1D181CFFF703FE031C8F
:1066F000FB60FB68BB60BB68002B06D0BA68054B2B
:10670000101CD5211A1CFFF727FFBD4606B080BD1F
:106710008C2400207086010080B582B000AFFFF7A6
:10672000BFFE031C7B607B683B603B68002B06D090
:106730003A68044B101CDE211A1CFFF70DFFBD4602
:1067400002B080BD7086010080B500AF8023DA05FD
:10675000AA23DB000021D1508023DA0580235B00CF
:106760000021D1508023DB0501221A60C04680231E
:10677000DA0580235B00D358002BF8D0BD4680BDDE
:1067800080B500AFFFF7E0FFFFF708FFFFF788FFD6
:10679000FFF70CFFFFF764FFFFF7BEFFFCE7C04603
:1067A00080B584B000AFF860B9607A603B6001F0FA
:1067B000B7FB031C16221A6001235B42181CBD465E
:1067C00004B080BD80B584B000AFF860B9607A6075
:1067D0003B600023181CBD4604B080BD80B584B06A
:1067E00000AFF860B9607A603B603B68181CBD463A
:1067F00004B080BD80B582B000AF786039600023FE
:10680000181CBD4602B080BD80B584B000AF786072
:106810003960124B1B68002B02D1104B104A1A60D2
:106820000E4B1B68FB600D4B1A683B68D2186B4619
:106830009A4207D901F074FB031C0C221A60012351
:106840005B4206E0054B1A683B68D218034B1A609E
:10685000FB68181CBD4604B080BDC046DC24002087
:106860008025002080B584B000AFF860B9607A6000
:106870007B68181C00213C2201F082FC7B6880228E
:1068800092015A600023181CBD4604B080BDC0466A
:1068900080B582B000AF786039600123181CBD4616
:1068A00002B080BD80B582B000AF7860FEE7C04620
:1068B00070DF7047181CC04671DF7047181CC04657
:1068C00072DF7047181CC04673DF7047181CC04643
:1068D00074DF7047181CC04675DF7047181CC0462F
:1068E00076DF7047181CC04677DF7047181CC0461B
:1068F00078DF7047181CC04679DF7047181CC04607
:106900007ADF7047181CC0467BDF7047181CC046F2
:106910007CDF7047181CC0467DDF7047181CC046DE
:106920007EDF7047181CC0467FDF7047181CC046CA
:1069300080DF7047181CC04681DF7047181CC046B6
:1069400082DF7047181CC04683DF7047181CC046A2
:1069500084DF7047181CC04680B584B000AF7860F3
:1069600039603B1C0F3300221A703B1C0F331B781D
:106970007A68D3183A6812781A703B1C0F333A1CA5
:106980000F32127801321A703B1C0F331B787A6871
:10699000D3183A6852781A703B1C0F333A1C0F32E6
:1069A000127801321A703B1C0E333A1C0F321278E7
:1069B000023A51424A411A703B1C0E331B780122A5
:1069C0005340DBB2002B05D0064B002020211A1CBF
:1069D000FFF7C2FD3B1C0F331B78181CBD4604B0EB
:1069E00080BDC0468486010080B582B000AF78606B
:1069F00039603B68181C01F04FFC031C9AB27B689D
:106A00001A807B683A685A60BD4602B080BDC046B5
:106A100070DF7047181CC04671DF7047181CC046F5
:106A200072DF7047181CC04673DF7047181CC046E1
:106A300074DF7047181CC04675DF7047181CC046CD
:106A400076DF7047181CC04677DF7047181CC046B9
:106A500078DF7047181CC04679DF7047181CC046A5
:106A60007ADF7047181CC0467BDF7047181CC04691
:106A70007CDF7047181CC0467DDF7047181CC0467D
:106A80007EDF7047181CC0467FDF7047181CC04669
:106A900080DF7047181CC04681DF7047181CC04655
:106AA00082DF7047181CC04683DF7047181CC04641
:106AB00084DF7047181CC046B0DF7047181CC04602
:106AC000B1DF7047181CC046B2DF7047181CC046C3
:106AD00090DF7047181CC04691DF7047181CC046F5
:106AE00092DF7047181CC04693DF7047181CC046E1
:106AF00094DF7047181CC04695DF7047181CC046CD
:106B000096DF7047181CC04697DF7047181CC046B8
:106B100098DF7047181CC046A0DF7047181CC0469D
:106B2000A1DF7047181CC046A2DF7047181CC04682
:106B3000A3DF7047181CC046A4DF7047181CC0466E
:106B4000A5DF7047181CC046A6DF7047181CC0465A
:106B5000A7DF7047181CC046A8DF7047181CC04646
:106B6000A9DF7047181CC046AADF7047181CC04632
:106B700060DF7047181CC04661DF7047181CC046B4
:106B800062DF7047181CC04663DF7047181CC046A0
:106B900064DF7047181CC04665DF7047181CC0468C
:106BA00066DF7047181CC04667DF7047181CC04678
:106BB00068DF7047181CC04669DF7047181CC04664
:106BC00080B582B000AF021C3960BB1D1A80BB1DAE
:106BD0001B88DAB23B681A703B680133BA1D128811
:106BE000120A92B2D2B21A700223181CBD4602B029
:106BF00080BDC04680B588B000AFF860B9607A60EB
:106C00003B1C1C337A6812781A703B1C1C331B78AF
:106C100002331F2B04DCFB685B7802331F2B01DD82
:106C20000C2383E03B1C1C331B789AB23B1C1E33A5
:106C30001D218A1A1A803B1C16333A1C1E321288F8
:106C40001A803B1C1C331B780233BA68D2183B1CD9
:106C50001633101C191CFFF70FFF031CBB61BB6927
:106C6000002B01D0BB6961E0FB681B78022B12D1BD
:106C70003B1C16331B883A1C1E3212889A420AD3D8
:106C80003B1C1D3309221A703B1C1E333A1C163262
:106C900012881A801AE03B1C1D3308221A70FB6808
:106CA0005B78002B0CD0FB685B783A1C1E32128894
:106CB0009A4205D3FB685A783B1C1E331A8005E0C4
:106CC0003B1C1E333A1C163212881A803B1C1C33A4
:106CD0001B78BA68D3183A1C1E321288D2B201321D
:106CE000D2B21A703B1C1C333A1C1C32127801328F
:106CF0001A703B1C1C331B78BA68D3183A1C1D321F
:106D000012781A703B1C1C333A1C1C321278013268
:106D10001A707B681A783B1C1E331B88DBB2D318B1
:106D2000DBB20233DAB27B681A700023181CBD464E
:106D300008B080BD90B585B000AF786039603B6821
:106D40001B7804331F2B01DD0C2334E03B1C0A337A
:106D5000181CFFF781FE031CFB60FB68002B01D0B1
:106D6000FB6828E03B681B781A1C79688A180321A5
:106D700011700133DAB23B681A703B681B781A1C39
:106D800079688A18192111700133DAB23B681A70D8
:106D90003B681C783B1C0A331A883B681B7879686F
:106DA000CB18101C191CFFF70BFF031CE318DAB2F9
:106DB0003B681A700023181CBD4605B090BDC04644
:106DC00080B584B000AFF8607A603B603B1C0B3349
:106DD0000A1C1A70FB685B68002B01D107233CE09A
:106DE0003B681B789A1CFB681B88D3181F2B01DD9E
:106DF0000C2332E03B681B781A1C79688A18F96802
:106E00000988C9B20131C9B211700133DAB23B68E5
:106E10001A703B681B781A1C79688A18391C0B3168
:106E2000097811700133DAB23B681A703B681B783D
:106E30007A68D118FB685A68FB681B88081C111C0B
:106E40001A1C01F0FBF83B681A78FB681B88DBB260
:106E5000D318DAB23B681A700023181CBD4604B080
:106E600080BDC04680B584B000AFB9607A603B1C7D
:106E70000F33021C1A707B681B7803331F2B01DD54
:106E80000C2323E07B681B781A1CB9688A1802213E
:106E900011700133DAB27B681A707B681B781A1C98
:106EA000B9688A180A2111700133DAB27B681A7046
:106EB0007B681B781A1CB9688A18391C0F3109784D
:106EC00011700133DAB27B681A700023181CBD46BA
:106ED00004B080BD80B58AB000AFF8607B603B1C19
:106EE0000B3319703B1C0A331A703B1C23330022EE
:106EF0001A703B1C22333A6B12781A7000237B62A3
:106F00007FE0FB685A687B6A9B00D3183A1C1432F6
:106F1000111C1A1C0423081C111C1A1C01F08EF8E9
:106F20003A1C14323B1C1A33101C191C0022FFF7A8
:106F300033FE031CFB61FB69002B01D0FB697CE085
:106F40003B1C1A331B783A1C0A3212789A4255D1EC
:106F50003B1C23331B78002B01D0002300E00223CD
:106F60003A1C1B3213703B6B1B781A1C3B1C1A33E8
:106F70001B78D2183B1C1B331B78D3181F2B01DD49
:106F80000C235AE03B1C23331B7801225340DBB215
:106F9000002B16D03B6B1B780133DAB23B6B1A70B7
:106FA0003B6B1B781A1C79688A18391C0B310978DD
:106FB00011700133DAB23B6B1A703B1C2333012290
:106FC0001A703B6B1B787A68D318391C14313A1C41
:106FD0001A32081C111C1A1CFFF7DEFD031CFB6192
:106FE000FB69002B01D0FB6927E03B6B1A783B1C47
:106FF0001A331B78D318DAB23B6B1A707B6A0133F1
:107000007B62FB681B881A1C7B6A9A4200DD78E76A
:107010003B1C23331B78002B0ED03B1C22331B78E8
:107020007A68D3183A6B11783A1C22321278D2431C
:10703000D2B28A18D2B21A700023181CBD460AB008
:1070400080BDC04680B588B002AFF8607B603B1C55
:107050000B3319703B1C0A331A70F9683B1C0B3355
:107060001A787B68386A0090081C111C0222FFF70E
:1070700031FF031C7B617B69002B01D07B6913E02E
:10708000F9683B1C0A331A787B68386A0090081C40
:10709000111C1022FFF71EFF031C7B617B69002B74
:1070A00001D07B6900E00023181CBD4606B080BDFE
:1070B00080B582B000AF78607B681B88052B0AD949
:1070C0007B681A88C8231B019A4206D97B681A88F4
:1070D000164B9A4201D0072323E07B685B88052B7F
:1070E0000AD97B685A88C8231B019A4206D97B6853
:1070F0005A880E4B9A4201D0072312E07B681A8807
:107100000A4B9A420CD07B685A88084B9A4207D0A7
:107110007B681A887B685B889A4201D9072300E064
:107120000023181CBD4602B080BDC046FFFF000012
:1071300090B587B000AFF860B9607A607B681B7863
:1071400006331F2B01D90C2343E0FB68181CFFF703
:10715000AFFF031C7B617B69002B01D07B6938E0AA
:107160007B681B781A1CB9688A18052111700133D5
:10717000DAB27B681A707B681B781A1CB9688A18A7
:10718000122111700133DAB27B681A707B681C78A7
:10719000FB681A887B681B78B968CB18101C191C0F
:1071A000FFF70EFD031CE318DAB27B681A707B68E8
:1071B0001C78FB685A887B681B78B968CB18101C50
:1071C000191CFFF7FDFC031CE318DAB27B681A7088
:1071D0000023181CBD4607B090BDC04690B587B0CF
:1071E00000AFF860B9607A60FB689B88DAB23B1C3C
:1071F000173302321A707B681B789A1C3B1C1733BA
:107200001B78D3181F2B01DD0C234BE07B681B7808
:107210001A1CB9688A18391C173109780131C9B2AA
:1072200011700133DAB27B681A707B681B781A1C04
:10723000B9688A18FF2111700133DAB27B681A70BD
:107240007B681C78FB681A887B681B78B968CB1848
:10725000101C191CFFF7B4FC031CE318DAB27B689E
:107260001A70FB689B88002B1BD0FB689B68002B67
:1072700001D1072316E07B681B78BA68D118FB6838
:107280009A68FB689B88081C111C1A1C00F0D6FE2B
:107290007B681A78FB689B88DBB2D318DAB27B680C
:1072A0001A700023181CBD4607B090BD90B589B078
:1072B00000AFF860B9607A60FB681B6B002B01D1EE
:1072C000072371E03B1C1F3300221A7063E0FB6848
:1072D000196B3B1C1F331A78131C5B009B189B0017
:1072E000CB18BB61BB699B88DAB23B1C17330232F7
:1072F0001A707B681B781A1CB9688A18391C1731F8
:1073000009780131C9B211700133DAB27B681A70A1
:107310007B681B781A1CB9688A1816211170013312
:10732000DAB27B681A707B681C78BB691A887B6844
:107330001B78B968CB18101C191CFFF741FC031C03
:10734000E318DAB27B681A70BB699B88002B1BD0EC
:10735000BB699B68002B01D1072325E07B681B7864
:10736000BA68D118BB699A68BB699B88081C111C54
:107370001A1C00F063FE7B681A78BB699B88DBB23D
:10738000D318DAB27B681A703B1C1F333A1C1F32C9
:10739000127801321A70FA683423D35C3A1C1F3217
:1073A00012789A4293D30023181CBD4609B090BDB1
:1073B00080B588B002AFF860B9607A6000237B6165
:1073C0007B6800221A70FB681B78002B0ED0F968CE
:1073D000BA687B68081C111C1A1CFFF70BFC031C05
:1073E0007B617B69002B01D07B69B8E0FB689B78EF
:1073F000002B0CD0BA687B68101C191CFFF79AFC94
:10740000031C7B617B69002B01D07B69A7E0FB68D3
:107410009B88002B0ED0FB68191DBA687B68081C7E
:107420000121FFF7CDFC031C7B617B69002B01D0A0
:107430007B6994E0FB68DB68002B11D0FB68DB689C
:107440001B7859B2BA687B68081C111C1A1CFFF71C
:1074500009FD031C7B617B69002B01D07B697EE009
:10746000FB681B8A002B11D0FB681A1C1032BB680A
:1074700079680091101C02210622FFF7E3FD031C2E
:107480007B617B69002B01D07B6968E0FB681B8B0B
:10749000002B11D0FB681A1C1832BB687968009168
:1074A000101C03210722FFF7CDFD031C7B617B69C4
:1074B000002B01D07B6952E0FB681B8C002B11D0A4
:1074C000FB681A1C2032BB6879680091101C1421DB
:1074D0001522FFF7B7FD031C7B617B69002B01D0F0
:1074E0007B693CE0FB689B6A002B0FD0FB68996AC4
:1074F000BA687B68081C111C1A1CFFF719FE031CD4
:107500007B617B69002B01D07B6928E0FB68DB6A2B
:10751000002B0FD0FB68D96ABA687B68081C111C65
:107520001A1CFFF75BFE031C7B617B69002B01D0FB
:107530007B6914E0FA683423D35C002B0ED0F96821
:10754000BA687B68081C111C1A1CFFF7AFFE031CED
:107550007B617B69002B01D07B6900E07B69181C93
:10756000BD4606B080BDC04680B582B000AF786031
:107570007B689B88002B0AD07B689B68002B06D019
:107580007B689B681B781A1C0423134001D10723D6
:1075900000E00023181CBD4602B080BD80B582B05B
:1075A00000AF78607B689B88002B01D0072300E048
:1075B0000023181CBD4602B080BDC04680B596B001
:1075C00000AF786039603B1C4B3300221A703B1CC3
:1075D0004A3300221A707B68002B1FD07B68181C6E
:1075E000FFF7C2FF031CFB64FB6C002B01D0FB6C9C
:1075F00046E079683A1C28323B1C4B33081C111CAE
:107600001A1CFFF7D5FE031CFB64FB6C002B01D09A
:10761000FB6C35E03B1C28337B6501E000237B6578
:107620003B68002B1FD03B68181CFFF7B7FF031CFB
:10763000FB64FB6C002B01D0FB6C21E039683A1C29
:1076400008323B1C4A33081C111C1A1CFFF7B0FE01
:10765000031CFB64FB6C002B01D0FB6C10E03B1C9B
:1076600008333B6501E000233B653B1C4B33197835
:107670003B1C4A331B78786D3A6DFFF7D1F9031C38
:10768000181CBD4616B080BD23DF7047181CC046CD
:1076900024DF7047181CC04625DF7047181CC04601
:1076A00026DF7047181CC04627DF7047181CC046ED
:1076B00028DF7047181CC04629DF7047181CC046D9
:1076C0002ADF7047181CC0462BDF7047181CC046C5
:1076D0002CDF7047181CC0462DDF7047181CC046B1
:1076E0002EDF7047181CC0462FDF7047181CC0469D
:1076F00030DF7047181CC04631DF7047181CC04689
:1077000032DF7047181CC04635DF7047181CC04672
:1077100036DF7047181CC04633DF7047181CC04660
:1077200034DF7047181CC04637DF7047181CC0464E
:1077300038DF7047181CC04639DF7047181CC04638
:107740003ADF7047181CC0463BDF7047181CC04624
:107750003CDF7047181CC0463DDF7047181CC04610
:107760003EDF7047181CC0463FDF7047181CC046FC
:1077700041DF7047181CC04642DF7047181CC046E6
:1077800043DF7047181CC04640DF7047181CC046D6
:1077900044DF7047181CC04645DF7047181CC046C0
:1077A00046DF7047181CC04647DF7047181CC046AC
:1077B00048DF7047181CC04649DF7047181CC04698
:1077C0004ADF7047181CC0464BDF7047181CC04684
:1077D0004CDF7047181CC0464DDF7047181CC04670
:1077E00051DF7047181CC04652DF7047181CC04656
:1077F00021DF7047181CC04620DF7047181CC046A8
:1078000022DF7047181CC0464EDF7047181CC04668
:107810004FDF7047181CC04650DF7047181CC04629
:1078200010DF7047181CC04611DF7047181CC04697
:1078300012DF7047181CC04613DF7047181CC04683
:1078400080B582B000AF78607A68032313405A4253
:107850005341DBB2181CBD4602B080BD70DF7047DB
:10786000181CC04671DF7047181CC04672DF704795
:10787000181CC04673DF7047181CC04674DF704781
:10788000181CC04675DF7047181CC04676DF70476D
:10789000181CC04677DF7047181CC04678DF704759
:1078A000181CC04679DF7047181CC0467ADF704745
:1078B000181CC0467BDF7047181CC0467CDF704731
:1078C000181CC0467DDF7047181CC0467EDF70471D
:1078D000181CC0467FDF7047181CC04680DF704709
:1078E000181CC04681DF7047181CC04682DF7047F5
:1078F000181CC04683DF7047181CC04684DF7047E1
:10790000181CC046B0DF7047181CC046B1DF704776
:10791000181CC046B2DF7047181CC04690DF704785
:10792000181CC04691DF7047181CC04692DF704794
:10793000181CC04693DF7047181CC04694DF704780
:10794000181CC04695DF7047181CC04696DF70476C
:10795000181CC04697DF7047181CC04698DF704758
:10796000181CC046A0DF7047181CC046A1DF704736
:10797000181CC046A2DF7047181CC046A3DF704722
:10798000181CC046A4DF7047181CC046A5DF70470E
:10799000181CC046A6DF7047181CC046A7DF7047FA
:1079A000181CC046A8DF7047181CC046A9DF7047E6
:1079B000181CC046AADF7047181CC04660DF70471D
:1079C000181CC04661DF7047181CC04662DF704754
:1079D000181CC04663DF7047181CC04664DF704740
:1079E000181CC04665DF7047181CC04666DF70472C
:1079F000181CC04667DF7047181CC04668DF704718
:107A0000181CC04669DF7047181CC04680B584B09A
:107A100000AFF8607A603B1C0A330A1C1A803B1CDA
:107A20000A331A887B68101C191CFEF7A1FDBD469D
:107A300004B080BD80B584B000AF3E4B1B78DBB294
:107A400001225340DBB2002B00D06EE03A4B1A68A3
:107A50003B1C0F3351424A411A70384B1A683B1C89
:107A60000E3351424A411A7000E0C0463B1C0F33AE
:107A70001B7801225340DBB2002B1DD03B1D181C8C
:107A8000FFF7AEFE031CBB60BB68052B04D13B1C9B
:107A90000F3301221A700FE0BB68002B07D0BA68C1
:107AA000274B101C69211A1CFEF756FD04E0224BDF
:107AB0001B687A68101C98473B1C0E331B78012208
:107AC0005340DBB2002B25D01E4B1A88BB1C1A80FA
:107AD0001D4B1A68BB1C101C191CFFF773FF031CFD
:107AE000BB60BB68052B04D13B1C0E3301221A700E
:107AF00010E0BB68002B07D0BA68114B101C802126
:107B00001A1CFEF729FD05E00C4B1A680E4B1B688A
:107B1000181C90473B1C0F331B78002BA5D03B1C37
:107B20000E331B78002BA0D000E0C046BD4604B049
:107B300080BDC046EA240020F0240020EC24002070
:107B4000AC860100E8240020E424002080B586B043
:107B500000AFF860B9603B60BB1D1A80BB68002BAA
:107B600001D1072329E0BB68181CFFF769FE031C3D
:107B700001225340DBB2002B01D007231DE0114B43
:107B8000BA681A60104BBA1D12881A800F4B3A68F7
:107B90001A60FA680E4B101C191CFFF741FE031CFB
:107BA0007B617B69002B01D07B6906E0094B0122D8
:107BB0001A701620FFF774FD031C181CBD4606B092
:107BC00080BDC046E4240020E8240020E0240020FA
:107BD0000D7A0100EA24002080B582B000AFFFF7E3
:107BE00023FE031C7B607B685A1E9341DAB2034B71
:107BF0001A707B68181CBD4602B080BDEA240020C4
:107C000080B582B000AF78607B68002B01D10E2375
:107C100003E0044B7A681A600023181CBD4602B0CA
:107C200080BDC046EC24002080B582B000AF7860F3
:107C30007B68002B01D10E2303E0044B7A681A60A5
:107C40000023181CBD4602B080BDC046F0240020B1
:107C500080B582B000AF0E4B1B68002B13D00C4BCD
:107C60001B689847031C7B607B683B603B68002B6C
:107C70000BD0396899235A00064B081C111C1A1C9A
:107C8000FEF76AFC01E0FFF7D5FEBD4602B080BDFD
:107C9000E0240020AC86010080B584B000AFF8601D
:107CA000B9607A600B4A7B68101C191C7F2200F0B7
:107CB000FBFA084A7F230021D154BB689AB2064BD5
:107CC0001A80064BFA681A60034B1B88034B1B682B
:107CD00072B6FEE7F42400207425002078250020E9
:107CE00080B500AF024B034A1A60BD4680BDC04656
:107CF0001C2000200024F40080B500AF00F01EF826
:107D0000031C002B06D00A4B0A4A1A600A4B802239
:107D100012021A6000F052F8031C002B05D08023D9
:107D2000DA05C123DB000121D150BD4680BDC0462C
:107D300004050040DFFF07C0186C004080B500AFAD
:107D40001A4B1A68FF231340012B2AD1184B1A68CB
:107D50000F23134025D1174B1A68F023134006D187
:107D6000154B1A68F023134001D101231AE0114B7F
:107D70001A68F0231340102B06D10F4B1A68F0231A
:107D8000134001D101230DE00A4B1A68F023134080
:107D9000302B06D1084B1A68F023134001D1012380
:107DA00000E00023181CBD4680BDC046E00F00F077
:107DB000E40F00F0E80F00F0EC0F00F080B500AF2A
:107DC0000D4B1A68FF231340012B11D10B4B1A687E
:107DD0000F2313400CD10A4B1A68F0231340402B99
:107DE00006D1084B1A68F023134001D1012300E0AB
:107DF0000023181CBD4680BDE00F00F0E40F00F02A
:107E0000E80F00F0EC0F00F003210A4802680A4373
:107E10000260094802680A4302600849084A094B9F
:107E20009B1A03DD043BC858D050FBDC0648804752
:107E3000064800472405004054050040E88601003C
:107E4000002000205C240020F97C01002161010059
:107E5000FEE7FEE7FEE7FEE7FEE7FEE7F0B54F468A
:107E60004646C0B498462C4B061CA42518680F1C27
:107E70006900445883B091460190002C47D0626855
:107E80001F2A1ADD254C002C02D1012778421DE063
:107E9000C823580000E000BF041EF6D0002545604E
:107EA0000199A42042008B58019823608450C62376
:107EB000C42251005800655025506568002E0AD133
:107EC000A91C8E00013537516560002003B00CBC41
:107ED00090469946F0BDAA00A01888234946C422BE
:107EE000C1505000221810680121A94008431060B9
:107EF0002A1C2032900022184046D050022EDFD19A
:107F0000C6267300E218106801431160D8E7041C0C
:107F10004D34FF344450B2E7D88601000000000021
:107F2000014B18687047C0464824002010B5002156
:107F3000041C00F057FA044B1868C16B002900D0EC
:107F40008847201CFEF7AEFCD8860100F0B5154B23
:107F5000154E4746F01A80B486101DD0751EAF002E
:107F6000FF18012129403A6888463C1F9047002DA0
:107F700012D04346002B06D02468A047B51E3C1CF7
:107F8000083C002D08D02068261F8047023D376836
:107F9000B847083C002DF6D100F064FB04BC9046C5
:107FA000F0BDC0465424002058240020F8B51F4FCF
:107FB0001F4C381B871018D001227B1E151C02CCC9
:107FC00001261D408847B7420FD0002D04D040CC79
:107FD000B0470226B74208D0251C01CD80470236A3
:107FE000636898472C1DB742F6D100F035FB114F5E
:107FF000114C3A1B971018D00126791E351C01CC64
:1080000001260D408047B7420FD0002D04D008CC88
:1080100002269847B74208D0251C04CD9047023667
:10802000616888472C1DB742F6D1F8BD4C2400206A
:108030004C240020542400204C240020F0B54F464E
:108040004646C0B40F2A72D90B1C03439C0700D0CC
:1080500090E0171C103F3C09013427010C683B1CC1
:108060000460103BDE064B68CD1943608C68F60F48
:108070008460CB68041CC3600B1C103310349D4219
:1080800027D0002E0BD0196821605E686660996861
:10809000A160DE681033E66010349D4219D0196883
:1080A00021605E6866609968A160DE68191CE66000
:1080B0001B69261C23614C6974618B69B361CC69AF
:1080C0001031F4610B1C1036341C103310349D42F7
:1080D000E5D13F180F21B846114003294DD9043985
:1080E0008E08B3000433EC18A446043B2C1C5F0735
:1080F00008CC4146B14608C1FE0F64450FD0002EA2
:1081000003D080CC80C1644509D0271C08CF0E1C49
:1081100008C664684C603C1D311D6445F5D1494674
:1081200001318E000327AD193A40464401E00D1C91
:10813000061C002A1AD02F78B218F343D118012454
:10814000377001360C40013596420FD0002C05D017
:108150002B78013533700136964207D0297831707B
:108160006C780235747002369642F7D10CBC90469A
:108170009946F0BD061C0D1CDDE73E1C0A1CD8E725
:10818000F0B5830700D181E0541E002A7DD0CDB226
:10819000031C0326E70711D5431C0570334211D099
:1081A0001D700133941E33420CD0621E002C6CD023
:1081B0001D700133141C334204D0013C1D70013387
:1081C0003342F2D1032C49D9FF220A4017023A4325
:1081D00015042A430F2C5CD9261C103E37090137A1
:1081E0003D015E19103DEF061A605A609A60DA6030
:1081F0001033FD0F9E4213D0002D06D01A605A6036
:108200009A60DA6010339E420AD01A605A609A600F
:10821000DA601A615A619A61DA6120339E42F4D1C0
:108220000F231C40351C331C032C17D9261FB708FD
:108230000137BE00AB19043E770704C5FE0F9D420F
:108240000AD0002E02D004C59D4205D02F1C04C7C1
:108250006A603D1D9D42F9D103221440002C14D0C8
:108260001C19DD43C9B266190127197001333E405C
:10827000A3420AD0002E03D019700133A34204D0C8
:10828000197059700233A342FAD1F0BD031C141CBB
:1082900098E71D1CCAE7C0460023C25C0133002AD0
:1082A000FBD1581E7047C046F0B50B1C5F465646C2
:1082B0004D4644460343F0B49C0700D07EE0031CC7
:1082C000032A3BD9161F74073E4DE70F0C1CA94625
:1082D0008A4620CC3C49B3464E19B846AE434F4679
:1082E0003E426DD1031C5A4620C3032A25D9454678
:1082F000002D08D0A246344920CC4F466E18AE431C
:108300003E4216D05CE0261C20CE2F494F4649192C
:10831000A943A246394253D120C36568B246341CF2
:10832000294E4F46A9190E1CAE43043A04343E426E
:1083300046D1043A20C3032AE5D8211C002A2FD0B5
:108340000D78541E1D7001310133002D11D0E50749
:108350002CD4002C24D00E78013C1E704F1C01330D
:10836000002E06D04D78013C1D70791C0133002D84
:10837000EFD11919002C13D0DC4300220E1901276C
:108380001A7001333E408B420AD0002E03D01A707F
:1083900001338B4204D01A705A7002338B42FAD1E7
:1083A0003CBC90469946A246AB46F0BD941E0A7866
:1083B00001311A700133002ACBD1DAE7031CBDE783
:1083C0005146BBE780808080FFFEFEFE08B5034B70
:1083D000002B02D0024800F037F908BD0000000071
:1083E0004D7F0100F0B55F4656464D464446F0B419
:1083F000934B87B0049018680F1C03904930FF30EE
:108400000590039AA4214C00059D1459AA46002CFE
:1084100045D06668013E3ED4201C8830B300C4219C
:10842000C2184D00C6230290904628195A00012513
:108430001119354081468B460195002F00D183E00C
:10844000404680300368BB4200D17DE04546043D94
:10845000013E20D3019A002A0AD0002F00D193E0D8
:108460004146CB6FBB4200D18EE0043D013E12D3AA
:10847000002F43D0281C80300368BB423ED0281F09
:10848000013E8046002F11D0ED6FBD420ED0454613
:10849000043D013EECD26B4D002D00D0BEE007B094
:1084A0003CBC90469946A246AB46F0BD029A434674
:1084B0006068991A65180138AB68B04200D185E050
:1084C0000022AA60002BE2D0494601220868B2408F
:1084D0006568104256D059460868104200D185E0C0
:1084E0004246106898476368AB4200D089E755461A
:1084F0002868A04200D084E74546C9E7029AA91A35
:1085000062686018013A8368B2425DD000218160E0
:10851000002BB4D060684946804601220868B2400A
:1085200010420FD05946086810425CD1049829685F
:1085300098476368434500D063E752461168A142FB
:108540009DD05EE79847F4E7029942466068551A65
:10855000621901389368B04258D000219160002B15
:1085600000D173E7484601220168B24065681142B4
:108570002ED058460168114244D1414604980968FA
:10858000984726E09847AEE7029861682A1AA01833
:1085900001398368B1423BD000228260002B00D1B8
:1085A00063E760684946804601220868B24010428D
:1085B00021D198476368434500D022E752461168AD
:1085C000A14200D151E71CE76660A1E7666079E748
:1085D00098476368AB4200D013E755462868A0422D
:1085E00000D133E70DE728689847A2E74146049891
:1085F0000968984777E75946086810420AD0286802
:108600009847D7E7424610689847E2E76660A6E7D2
:108610006660C3E7049829689847CBE760682368D9
:1086200000280AD1002B07D05246201C136000E01E
:1086300000BF51460C68EAE60023A2461C1CE6E691
:10864000D88601000000000008B5011C00220020AF
:108650000023FFF703FC08BDF8B5C046F8BC08BC12
:108660009E467047F8B5C046F8BC08BC9E467047A9
:108670002E2F736F75726365732F6D61696E2E6334
:10868000000000002E2F73646B2F626C652F626CEC
:10869000655F73657276696365732F626C655F737E
:1086A00072765F636F6D6D6F6E2E63002E2F736435
:1086B0006B2F73645F636F6D6D6F6E2F736F667476
:1086C0006465766963655F68616E646C65722E636C
:1086D00000000000430000002020002000000000F7
:0886E00040DAFF7F01000000F9
:1086E8000000000002150112233445566778899A64
:1086F800ABBCCDDEEFF009070101C3000024F40094
:10870800000000000C23002074230020DC2300203C
:108718000000000000000000000000000000000051
:108728000000000000000000000000000000000041
:1087380000000000D48601000000000000000000D6
:108748000000000000000000000000000000000021
:108758000000000000000000000000000000000011
:108768000000000000000000000000000000000001
:1087780000000000000000000000000000000000F1
:1087880000000000000000000000000000000000E1
:1087980000000000000000000000000000000000D1
:1087A80000000000000000000100000000000000C0
:1087B8000E33CDAB34126DE6ECDE05000B00000085
:1087C80000000000000000000000000000000000A1
:1087D8000000000000000000000000000000000091
:1087E8000000000000000000000000000000000081
:1087F8000000000000000000000000000000000071
:108B2800000000000000000020200020CD8301008C
:0C8B3800E9600100C160010000000000C5
:0400000310007E0962
:00000001FF
